S01700004763634170706C69636174696F6E372E7372656355
S11300000C9434000C9449000C9449000C9449005D
S11300100C9449000C9449000C9449000C94490038
S11300200C9449000C9449000C9449000C94490028
S11300300C9449000C9449000C9449000C94490018
S11300400C9449000C9449000C9449000C94490008
S11300500C9449000C9449000C9449000C944900F8
S11300600C9449000C94490011241FBECFEFD8E032
S1130070DEBFCDBF11E0A0E0B1E0E4E5F2E002C0F4
S113008005900D92AA31B107D9F70E948F000C9404
S113009028010C9400001092C50083E38093C400EF
S11300A088E18093C100E2ECF0E080818660808387
S11300B00895E0ECF0E0908195FFFDCF8093C600B9
S11300C00895CF93DF93EC018881882331F0219642
S11300D00E94590089918111FBCFDF91CF9108953E
S11300E0ECE7F0E0808180648083EAE7F0E08081DF
S11300F0876880830895ECE7F0E09081907F8F70AB
S1130100892B8083EAE7F0E08081806480838081AA
S113011086FDFDCF809178009091790008950E942A
S11301204B000E9470002FEF84E39CE0215080403C
S11301309040E1F700C0000080E091E00E9461007F
S113014004E61DEC80E00E947B009C01220F331F1B
S1130150220F331FADECBCEC0E94190196958795D4
S11301609695879596958795AC014E5F5F4F44367B
S1130170510538F19A013695279536952795ABE7C1
S1130180B4E10E9419019C0136952795822F029FA4
S1130190B001039F700D1124461B570B419FD12DB5
S11301A01124CD2FC695C695C695CC0F9C2F990FBB
S11301B0990FC90F242F2C1BC22FD695D695D695EF
S11301C01AC09A01ADECBCEC0E9419019695879572
S11301D09695879596958795D82F9C01220F331F66
S11301E0880F991F880F991F880F991F820F931FDB
S11301F0C42FC81B80E0805D0E94590080E38D0FEE
S11302000E94590080E38C0F0E94590083E40E94ED
S113021059008AE00E9459008DE00E9459008FEF36
S113022093ED20E3815090402040E1F700C00000AE
S113023089CFA29FB001B39FC001A39F700D811D00
S11302401124911DB29F700D811D1124911D0895DB
S1070250F894FFCF4C
S11302544C4D33352054656D7065726174757265E7
S10D02642053656E736F720A0D00DB
S9030000FC
